:020000040000FA
:100000000C9472000C949A000C949A000C949A0030
:100010000C949A000C949A000C949A000C949A00F8
:100020000C949A000C949A000C949A000C949A00E8
:100030000C949A000C949A000C949A000C949A00D8
:100040000C9496090C949A000C94060A0C94E009FE
:100050000C949A000C949A000C949A000C949A00B8
:100060000C94380A0C949A0000000000230026002B
:1000700029001F1C1F1E1F1E1F1F1E1F1E31373A67
:1000800033363A353700417567203231203230320D
:10009000330000000000240027002A0000000000B8
:1000A000250028002B0004040404040404040202B4
:1000B00002020202030303030303010204081020E7
:1000C00040800102040810200102040810200000F2
:1000D0000008000201000003040700000000000007
:1000E00000009C0B11241FBECFEFD8E0DEBFCDBFB8
:1000F00023E0A0E3B2E001C01D92AA3AB207E1F703
:1001000012E0A0E0B1E0ECE1F8E202C005900D924F
:10011000A033B107D9F710E0C2E7D0E004C02197BF
:10012000FE010E940F12C137D107C9F70E94D90BF7
:100130000C940C140C94000090E0FC01E253FF4F6F
:100140002491FC01E654FF4F3491FC01EA55FF4F26
:10015000E491EE23C9F0222339F0233001F1A8F411
:10016000213019F1223029F1F0E0EE0FFF1FE456A3
:10017000FF4FA591B4918FB7F894EC91611126C00F
:1001800030953E233C938FBF08952730A9F0283047
:10019000C9F0243049F7809180008F7D03C08091A1
:1001A00080008F7780938000DFCF84B58F7784BD08
:1001B000DBCF84B58F7DFBCF8091B0008F778093AC
:1001C000B000D2CF8091B0008F7DF9CF3E2BDACF37
:1001D000CF93DF9390E0FC01E654FF4F24918A55C2
:1001E0009F4FFC0184918823D1F090E0880F991FE4
:1001F000FC01EE56FF4FA591B491FC01E456FF4F70
:10020000C591D49161110EC09FB7F8948C91E22FE3
:10021000E0958E238C932881E223E8839FBFDF91B2
:10022000CF9108958FB7F894EC91E22BEC938FBFA8
:10023000F6CF3FB7F89480917F0290918002A09111
:100240008102B091820226B5A89B05C02F3F19F00C
:100250000196A11DB11D3FBFBA2FA92F982F882746
:10026000BC01CD01620F711D811D911D42E0660F21
:10027000771F881F991F4A95D1F70895089508950B
:10028000AF92BF92CF92DF92EF92FF920F931F93A4
:10029000CF93DF936C017B018B01040F151FEB01E2
:1002A0005E01AE18BF08C017D10759F06991D60199
:1002B000ED91FC910190F081E02DC6010995892B0B
:1002C00079F7C501DF91CF911F910F91FF90EF90CA
:1002D000DF90CF90BF90AF900895FC01538D448D77
:1002E000252F30E0842F90E0821B930B541710F0E1
:1002F000CF96089501970895FC01918D828D9817EE
:1003000061F0A28DAE0FBF2FB11D5D968C91928DC5
:100310009F5F9F73928F90E008958FEF9FEF0895F6
:10032000FC01918D828D981731F0828DE80FF11DBF
:10033000858D90E008958FEF9FEF0895FC01918DDA
:10034000228D892F90E0805C9F4F821B91098F73D3
:100350009927089585EF92E00E949E0121E0892B64
:1003600009F420E0822F089580E090E0892B29F0A5
:100370000E94AA0181110C9400000895FC01A48D33
:10038000A80FB92FB11DA35ABF4F2C91848D90E0B7
:1003900001968F739927848FA689B7892C93A0899A
:1003A000B1898C91837080648C93938D848D981324
:1003B00006C00288F389E02D80818F7D80830895B7
:1003C000EF92FF920F931F93CF93DF93EC0181E0A5
:1003D000888F9B8D8C8D98131AC0E889F98980814C
:1003E00085FF15C09FB7F894EE89FF896083E8897F
:1003F000F98980818370806480839FBF81E090E071
:10040000DF91CF911F910F91FF90EF900895F62EFD
:100410000B8D10E00F5F1F4F0F731127E02E8C8D97
:100420008E110CC00FB607FCFACFE889F9898081DC
:1004300085FFF5CFCE010E94BE01F1CFEB8DEC0F11
:10044000FD2FF11DE35AFF4FF0829FB7F8940B8FF9
:10045000EA89FB8980818062CFCFCF93DF93EC0163
:10046000888D8823B9F0AA89BB89E889F9898C919C
:1004700085FD03C0808186FD0DC00FB607FCF7CF58
:100480008C9185FFF2CF808185FFEDCFCE010E9458
:10049000BE01E9CFDF91CF91089520915102260F3F
:1004A0003327331F21323105ECF42091CB02FC01BC
:1004B00090E080E0243069F082E00895A09151023C
:1004C0002191AC014F5C5D4FA40FB52FB11D2C9352
:1004D0000196861798F380915102680F609351023C
:1004E00080E0089581E008951092CB0281E080932E
:1004F000CA021092A50261E082E10E949C0061E0C4
:1005000083E10E949C00E9EBF0E080818E7F808394
:1005100080818D7F808388E48093B80085E4809318
:10052000BC000895CF93DF9391E09093300288232D
:10053000B9F0C091B800D091BA008091BC008A7B1C
:100540008093BC0060E082E10E949C0060E083E157
:100550000E949C000E947402D093BA00C093B8001D
:10056000DF91CF9108958F929F92AF92BF92CF92D9
:10057000DF92EF92FF920F931F93CF93DF93D0916F
:10058000F402D13208F0D7C0182FC091F3020E94B4
:1005900019016B017C018091CB0281116BC082E05B
:1005A0008093CB021093CA028FEF8093C9021092FE
:1005B000C802D093C702A3EDB2E0E7EAF2E080E020
:1005C000D81391C01092A6028091A602CC0FC82B1E
:1005D000C093A6028091A502813009F088C01092D4
:1005E000A5020E9419016B017C018091A6028093F3
:1005F000BB008091CD029091CE02A091CF02B0912C
:10060000D002892B8A2B8B2BA1F00E94190100911B
:10061000CD021091CE022091CF023091D0026C1900
:100620007D098E099F09061717072807390708F45F
:1006300042C08091BC0083FDD8CF85EC8093BC0084
:100640000E9419016B017C018091CB02823009F478
:1006500050C08091C9028F3F09F46FC08091C902D8
:10066000803209F46CC08091C902803309F469C0FA
:1006700084E026C08091CD029091CE02A091CF025D
:10068000B091D002892B8A2B8B2B09F484CF0E9446
:1006900019018090CD029090CE02A090CF02B09030
:1006A000D0026C197D098E099F0986169706A80647
:1006B000B90608F070CF8091CC020E94920285E0CA
:1006C0001092D2021092F4021092D102DF91CF91D7
:1006D0001F910F91FF90EF90DF90CF90BF90AF9060
:1006E0009F908F9008959D9191938F5F69CF85EE34
:1006F000A5CF8091CD029091CE02A091CF02B09172
:10070000D002892B8A2B8B2B09F49ECF0E941901D2
:100710000091CD021091CE022091CF023091D002F3
:100720006C197D098E099F090617170728073907D5
:1007300008F08ACFC0CF81E0C3CF80E0C1CF82E094
:10074000BFCF83E0BDCF0895E09184028091830202
:10075000E81730F4F0E0EB57FD4F808190E008950A
:100760008FEF9FEF089590918402809183022FEF85
:100770003FEF981748F4E92FF0E0EB57FD4F208149
:1007800030E09F5F90938402C901089580918302B5
:1007900090918402891B990B0895CF92DF92EF927A
:1007A000FF920F931F93CF93DF937C01CB018A01BC
:1007B0002091D102222389F0EB016B01C40ED51EDA
:1007C000CC15DD0569F06991D701ED91FC9101909F
:1007D000F081E02DC7010995F3CF642F0E944D02EF
:1007E000C801DF91CF911F910F91FF90EF90DF90A3
:1007F000CF900895CF93DF931F92CDB7DEB7698373
:100800002091D1022223F9F02091F402203258F0F5
:1008100021E030E0FC013383228390E080E00F9000
:10082000DF91CF9108958091D202E82FF0E0ED5250
:10083000FD4F998190838F5F8093D2028093F40261
:1008400081E090E0ECCF61E0CE0101960E944D0284
:10085000F7CF90E080E008951F93CF93DF93EA01F4
:10086000122FDC0111968D919C91DC01ED91FC9190
:100870000280F381E02D0995C817D90729F4812F4B
:100880000E94B30291E0811190E0892FDF91CF9116
:100890001F910895CF93DF93EC018B818823A1F002
:1008A000888191E09093D1028093F3021092D2025A
:1008B0001092F40281E00E94B30291E0811190E075
:1008C000892FDF91CF9108951092840210928302B4
:1008D0001092D2021092F4020E9474028EE391E010
:1008E00090937702809376028FE391E09093750264
:1008F0008093740281E08B83CE010E944A04982F7A
:100900008111CECFDDCFEF92FF920F931F93CF9344
:10091000DF93EC0169813881432F50E02A81822FD7
:1009200090E0E2E7F0E021E0261730F47491870FC1
:10093000911D2F5F3196F8CF633018F0337009F4B2
:1009400001966DE671E0469F9001479F300D569FDE
:10095000300D1124215031094D5F5F4F5695479559
:1009600056954795240F351F280F391FA8E1B0E091
:100970000E94BA102B817B018C01E20EF11C011D3B
:10098000111DA8019701ACE3B0E00E9478102C8102
:100990007B018C01E20EF11C011D111DA8019701C4
:1009A0000E947810AB01BC019D81892F90E0B0E0DE
:1009B000A0E080589C4BA249B74C8A019B01080FCC
:1009C000191F2A1F3B1FC901B801DF91CF911F9149
:1009D0000F91FF90EF900895FC01908190539A3011
:1009E00008F090E0818180532AE0929F800D1124CD
:1009F00008952F923F924F925F926F927F928F92C3
:100A00009F92AF92BF92CF92DF92EF92FF920F939D
:100A10001F93CF93DF935C011B016A01F12CE12C42
:100A2000D50114968D919C9186010E191F0980178E
:100A3000910708F48C01F501D0810E9419012B0166
:100A40003C018091CB02811172C0C02F013208F0AD
:100A5000C0E2F1E0F093CB0221E0C601801B910BD4
:100A6000E816F90608F420E02093CA028FEF80937D
:100A7000C9021092C8028C0F8093C702A1E0A09314
:100A8000A6028091A602DD0FD82BD093A6028091FA
:100A9000A502813009F090C01092A5020E941901B0
:100AA0002B013C018091A6028093BB008091CD0276
:100AB0009091CE02A091CF02B091D002892B8A2BC7
:100AC0008B2BA1F00E9419012091CD023091CE0212
:100AD0004091CF025091D002641975098609970997
:100AE000261737074807590708F442C08091BC0011
:100AF00083FDD8CFB5ECB093BC000E9419012B0147
:100B00003C018091CB02813009F45AC08091C80227
:100B10008C1710F4C091C802A7EAB2E0E5E8F2E051
:100B200080E08C1751F19D9191938F5FFACF809166
:100B3000CD029091CE02A091CF02B091D002892B2C
:100B40008A2B8B2B09F47DCF0E9419012091CD02B5
:100B50003091CE024091CF025091D00264197509B4
:100B600086099709261737074807590708F069CFFC
:100B70008091CC020E949202C0E010928402C09345
:100B80008302C017110609F057C041018E0C9F1C4B
:100B9000E401CE01881999098017910798F5D501CC
:100BA00011968D919C91DC01ED91FC910284F3856D
:100BB000E02D09958993EDCFE5EEE093BC009DCF44
:100BC0008091CD029091CE02A091CF02B091D0023F
:100BD000892B8A2B8B2B09F494CF0E941901209129
:100BE000CD023091CE024091CF025091D0026419D3
:100BF000750986099709261737074807590708F026
:100C000080CFB6CFE00EF11EEC14FD0408F408CF3F
:100C100081E0DF91CF911F910F91FF90EF90DF90D6
:100C2000CF90BF90AF909F908F907F906F905F908C
:100C30004F903F902F90089580E0EBCFEF92FF927E
:100C40000F931F93CF93DF9300D000D000D01F925B
:100C5000CDB7DEB78C011982E0909E03F0909F0320
:100C6000D70114968D919C911597892BE9F08C9161
:100C700091E09093D1028093F3021092D2021092ED
:100C8000F40220E041E050E0BE016F5F7F4FC701FA
:100C90000E942C04882341F047E050E0BE016F5FC2
:100CA0007F4FC7010E94F904E981EF77FA81FB8049
:100CB0004D815E818F81282F30E094E03595279516
:100CC0009A95E1F7922F990F990F291B220F280F60
:100CD000D8012C93852F90E024E0959587952A954F
:100CE000E1F7982F990F990F891B880F850F11969F
:100CF0008C931197642F70E034E0759567953A9561
:100D0000E1F7862F880F880F681B660F640F129615
:100D10006C9312974F2D50E064E0559547956A9576
:100D2000E1F7842F880F880F481B440F4F0D13964F
:100D30004C9313972F2F30E074E0359527957A95D3
:100D4000E1F7822F880F880F281B220F2F0F149690
:100D50002C9314978E2F90E0F4E095958795FA9553
:100D6000E1F7982F990F990F891B880F8E0F159611
:100D70008C93C80127960FB6F894DEBF0FBECDBF87
:100D8000DF91CF911F910F91FF90EF900895FC019B
:100D900001900020E9F73197AF01481B590BBC01C6
:100DA00085EF92E00C9440018F929F92AF92BF9298
:100DB0000F931F93CF93DF93CDB7DEB7A1970FB6F5
:100DC000F894DEBF0FBECDBF19A2423008F44AE04E
:100DD0008E010F5D1F4F842E912CB12CA12CA501EB
:100DE00094010E94ED11E62FB901CA01EA30F4F432
:100DF000E05DD801EE938D01232B242B252B79F771
:100E000090E080E0109719F0CD010E94C706A196EE
:100E10000FB6F894DEBF0FBECDBFDF91CF911F910B
:100E20000F91BF90AF909F908F900895E95CE1CFB4
:100E3000CF93DF930E94C706EC018AE291E00E9403
:100E4000C7068C0F9D1FDF91CF9108954F925F923F
:100E50006F927F928F929F92AF92BF92CF92DF92CA
:100E6000EF92FF920F931F93CF936B017C01742E2F
:100E7000AC019B010E94DC11882399F08DE291E086
:100E8000CF911F910F91FF90EF90DF90CF90BF9087
:100E9000AF909F908F907F906F905F904F900C9449
:100EA000C70646015701E894B7F82FEF3FEF4FE729
:100EB0005FE7C501B4010E94DC1181110DC02FEF65
:100EC0003FEF4FE75FE7C501B4010E94540F1816CA
:100ED0001CF481E391E0D4CF2FEF3FEF4FE75FE4C5
:100EE000C701B6010E94D71118161CF485E391E0E2
:100EF000C7CF2FEF3FEF4FE75FECC701B6010E946E
:100F0000540F87FDF3CF20E030E0A901C701B601FF
:100F10000E94540F10E000E087FF0AC06DE285EFE9
:100F200092E00E94E0018C01F7FAF094F7F8F09457
:100F3000C0E060E070E080E09FE37C1641F020E0DC
:100F400030E040E251E40E943611CF5FF6CFA701B6
:100F500096010E94CA102B013C010E94A8114B016E
:100F60005C014AE00E94D4067C01E00EF11ECC2315
:100F7000C1F1C501B4010E94590F9B01AC01C3012D
:100F8000B2010E94C9104B015C016EE285EF92E054
:100F90000E94E001E80EF91EC15018F120E030E097
:100FA00040E251E4C501B4010E94BA0F2B013C019B
:100FB0000E94A8114B01B12CA12C4AE0C501B4013B
:100FC0000E94D406E80EF91EC501B4010E94590F13
:100FD0009B01AC01C301B2010E94C9104B015C012D
:100FE000DBCFC701CF911F910F91FF90EF90DF9062
:100FF000CF90BF90AF909F908F907F906F905F90B9
:101000004F900895CF93DF93FC0144815581608117
:10101000718185EF92E00E944001EC018AE291E04B
:101020000E94C7068C0F9D1FDF91CF910895CF932B
:10103000DF93EC0188819981009711F00E94B11231
:10104000198218821D821C821B821A82DF91CF9125
:101050000895FC0180819181009711F00C94B112E8
:1010600008950F931F93CF93DF93EC0188819981AB
:10107000009759F02A813B812617370730F081E02D
:10108000DF91CF911F910F9108958B016F5F7F4F7B
:101090000E943A13009759F0998388831B830A832F
:1010A0002C813D81232B59F7FC011082E8CF80E091
:1010B000E7CFCF92DF92EF92FF920F931F93CF93E0
:1010C000DF93CDB7DEB72E970FB6F894DEBF0FBE15
:1010D000CDBF7C01CB01BA012AE0AE014F5F5F4F6B
:1010E0006A010E94130FF60101900020E9F7319781
:1010F000EC19FD09D9F0D70114960D911C910E0F32
:101100001F1FB801C7010E9431088823F9F0F701B9
:101110002081318184819581B601820F931F0E94C5
:101120000514D70115961C930E931497C7012E969C
:101130000FB6F894DEBF0FBECDBFDF91CF911F91E8
:101140000F91FF90EF90DF90CF900895C7010E941C
:101150001708ECCFEF92FF920F931F93CF93DF937B
:10116000EC01198218821B821A821D821C8286174A
:10117000970719F1FB010081118101151105E9F0B3
:10118000E480F580B7010E943108811109C0CE01C9
:10119000DF91CF911F910F91FF90EF900C94170862
:1011A000FD82EC82B80188819981DF91CF911F91F6
:1011B0000F91FF90EF900C940514DF91CF911F9148
:1011C0000F91FF90EF900895EF92FF920F931F936E
:1011D000CF93DF93EC017B01198218821B821A8264
:1011E0001D821C82FB0101900020E9F731978F01DD
:1011F000061B170BB8010E943108811109C0CE01EE
:10120000DF91CF911F910F91FF90EF900C941708F1
:101210001D830C83B70188819981DF91CF911F9144
:101220000F91FF90EF900C94051485ED8093BC0016
:101230008091CD029091CE02A091CF02B091D002C8
:101240000796A11DB11D23E0B695A79597958795A3
:101250002A95D1F72091BC0024FD03C01092CB0247
:1012600008954091CD025091CE026091CF027091CD
:10127000D002452B462B472B69F30097A105B105FA
:1012800041F02AE22A95F1F700C00197A109B109BE
:10129000E1CF8091CC020C9492020F931F9360E0F7
:1012A00083E00E949C0083E090E00197F1F761E009
:1012B00083E00E949C0083E290E00197F1F760E0F8
:1012C00083E00E949C00ECEBF0E06491E8EAF0E03F
:1012D000E491F0E0EE0FFF1FE859FF4F85919491E4
:1012E00000E412E42FE030E0462F0E94570B611516
:1012F00071058105910529F06F5F7F4F8F4F9F4FDB
:101300009F70072E000C880B990B0E945B0F26E93B
:1013100033E44BE05DE30E94BA0F20E030E040E0B0
:101320005FE30E94BA0F1F910F9108951F920F92D1
:101330000FB60F9211242F933F938F939F93AF93E8
:10134000BF9380917B0290917C02A0917D02B0912D
:101350007E0230917A0223E0230F2D3758F5019653
:10136000A11DB11D20937A0280937B0290937C0291
:10137000A0937D02B0937E0280917F0290918002C3
:10138000A0918102B09182020196A11DB11D8093AE
:101390007F0290938002A0938102B0938202BF915A
:1013A000AF919F918F913F912F910F900FBE0F9012
:1013B0001F90189526E8230F0296A11DB11DD2CFCC
:1013C0001F920F920FB60F9211242F933F934F93BA
:1013D0005F936F937F938F939F93AF93BF93EF939D
:1013E000FF9385EF92E00E94BE01FF91EF91BF91C4
:1013F000AF919F918F917F916F915F914F913F91AD
:101400002F910F900FBE0F901F9018951F920F9263
:101410000FB60F9211242F938F939F93EF93FF9307
:10142000E0910503F09106038081E0910B03F091B8
:101430000C0382FD1BC0908180910E038F5F8F7320
:1014400020910F03821741F0E0910E03F0E0EB5082
:10145000FD4F958F80930E03FF91EF919F918F9198
:101460002F910F900FBE0F901F9018958081F4CF91
:101470001F920F920FB60F9211242F933F934F9309
:101480005F936F937F938F939F93AF93BF93EF93EC
:10149000FF938091B900887F803609F44AC0F0F547
:1014A000883209F4A7C018F5803109F49BC0B8F45C
:1014B000882309F4F9C0883009F494C0FF91EF91B2
:1014C000BF91AF919F918F917F916F915F914F915C
:1014D0003F912F910F900FBE0F901F90189588315C
:1014E00009F488C0803251F78093C90214C0803457
:1014F00009F49DC040F48033B9F38833F9F6809342
:10150000C90285ECB0C0803509F485C0883509F47E
:1015100096C0883499F60E941509D0CF883909F40D
:101520008CC038F5883729F050F4883611F08037B0
:1015300029F683E08093CB021092730257C088385B
:1015400009F47BC0803919F0803809F0B7CF809159
:101550007302803208F071C0E091730281E08E0F57
:10156000809373028091BB00F0E0ED5AFD4F8083C1
:101570003DC0803B39F0E0F4803A09F479C0883A04
:1015800009F09CCF84E08093CB021092520210921B
:101590005102E0917602F091770209958091510213
:1015A00081110FC081E0809351021092310209C075
:1015B000803C09F4A6CF883C09F4A3CF883B09F00E
:1015C0007DCFE091520281E08E0F80935202F0E0D5
:1015D000EF5CFD4F80818093BB009091520280911F
:1015E000510229C08091A6028093BB0085EC8093B4
:1015F000BC0064CF9091C8028091C702981758F53B
:10160000E091C80281E08E0F8093C802F0E0E955B6
:10161000FD4F8081E9CFE091C80281E08E0F809379
:10162000C8028091BB00F0E0E955FD4F80839091A6
:10163000C8028091C7029817C8F285E8D8CFE09118
:10164000C80281E08E0F8093C8028091BB00F0E059
:10165000E955FD4F80838091CA0281115CCF81E002
:101660008093A50284EA8093BC001092CB0226CF1F
:1016700085EC8093BC001092CB0280917302803283
:1016800030F4E0917302F0E0ED5AFD4F108260916A
:10169000730270E0E0917402F091750283E592E0CC
:1016A0000995109273020ACF1092C90234CFCF92DB
:1016B000DF92EF92FF920F931F93E82FF92F05C04F
:1016C000015011092109310961F190819623941784
:1016D000B9F305C0015011092109310911F19081B7
:1016E00096239413F7CFC12CD12CE12CF12C0AC0F6
:1016F0008FEFC81AD80AE80AF80A0C151D052E053E
:101700003F0579F080818623841791F36C2D7D2D20
:101710008E2D9F2D1F910F91FF90EF90DF90CF9016
:10172000089560E070E080E090E01F910F91FF90DD
:10173000EF90DF90CF900895E5EFF2E013821282F0
:1017400088EE93E0A0E0B0E084839583A683B7831E
:101750002AE031E03183208325EC30E0358724878F
:1017600024EC30E03787268720EC30E0318B208B6B
:1017700021EC30E0338B228B22EC30E0358B248B54
:1017800026EC30E0378B268B118E128E138E148E42
:10179000E2E9F3E01382128284839583A683B78300
:1017A0008CE191E09183808380EA93E00E941E06A1
:1017B0000895CF93DF93CDB7DEB7A8970FB6F8940F
:1017C000DEBF0FBECDBF789484B5826084BD84B582
:1017D000816084BD85B5826085BD85B5816085BD2C
:1017E00080916E00816080936E00109281008091E4
:1017F000810082608093810080918100816080936C
:101800008100809180008160809380008091B10090
:1018100084608093B1008091B00081608093B000BB
:1018200080917A00846080937A0080917A0082604F
:1018300080937A0080917A00816080937A00809111
:101840007A00806880937A001092C1008E010F5F49
:101850001F4FC8010E941E0686E0F801A0EAB3E00F
:1018600001900D928A95E1F761E08DE00E94E80019
:1018700061E083E00E94E80060E082E00E94E8000E
:10188000E0910503F091060382E08083E09101037B
:10189000F09102031082E0910303F09104038FECB6
:1018A000808310920D03E0910903F0910A0386E012
:1018B0008083E0910703F091080380818061808339
:1018C000E0910703F0910803808188608083E091B4
:1018D0000703F0910803808180688083E09107030B
:1018E000F091080380818F7D808380919E03909189
:1018F0009F03009711F00E94B11286E090E00E94D1
:1019000015126C0188E6D6018C9382E993E0129659
:101910009C938E93119713961C92139780E290E0FC
:1019200015969C938E931497D0929F03C0929E031A
:1019300010928402109283021092D2021092F4024A
:101940000E9474028EE391E0909377028093760276
:101950008FE391E09093750280937402EE24E394F8
:10196000F601E382C6010E944A0481110AC089E39C
:1019700091E00E94180785EF92E00E942D020E94DC
:10198000F7131CA280919E0390919F03DC01149693
:101990002D913C911597232B89F02C91E092D10247
:1019A0002093F3021092D2021092F40221E041E05F
:1019B00050E0BE016C5D7F4F0E942C0441E050E07E
:1019C000B80180919E0390919F030E94F904898140
:1019D00090E0880F892F881F990B892B09F4A3C0E9
:1019E0008BE491E00E9418074BE050E066E870E05D
:1019F000C8010E940A0FCE010A960E94EC04E82E4C
:101A0000E981E154E331E0F40E2E000CFF0BE55FB9
:101A1000F24F0C940F12E40E200D200DFF0E200D3E
:101A20001E0D200D200D200DD50E200D200DED0ECC
:101A3000FC0EF90E200D200D200DF60E82E0F82E82
:101A4000CE0105960E94EC04D82E48E050E06DE7E8
:101A500070E0C8010E940A0FC8010E94EC04C82E61
:101A6000CE0104960E94EC04B82ECE0107960E9487
:101A7000EC04382F86E0F80111928A95E9F72AE004
:101A8000832F622F0E94E111982F880F890F880FF2
:101A9000830F8A838B2D0E94E111982F880F890F65
:101AA000880F8B0D8B838C2D0E94E111982F880F4E
:101AB000890F880F8C0D8C838D2D0E94E111982F3A
:101AC000880F890F880F8D0D8E838F2D0E94E11155
:101AD000982F990F890F880FF80EFF828E2D0E9484
:101AE000E111982F880F890F880F8E0D88878091BC
:101AF0009E0390919F03DC0114962D913C911597C4
:101B00002830310580F02C9131E03093D1022093C0
:101B1000F3021092D2021092F40221E048E050E069
:101B2000B8010E942C0490E0292E90E0392ECE01BD
:101B30004E960E941E0688A19F8D2E8D288F998F0C
:101B40008A8FBCE0BB8F1C8E1D8E2A8B9B8B8C8B4F
:101B5000E8E1ED8B1E8A1F8ACE0148960E9483041D
:101B60006B017C01CE0142960E9483046DA37EA38B
:101B70008FA398A7CE0148960E9483044B015C0175
:101B8000CE014E960E948304861A970AA80AB90AC3
:101B9000CE0142960E9483042B013C01CE014E9659
:101BA0000E948304461A570A680A790A63E771E0BB
:101BB000CE010C960E94E408BE01645F7F4FC8010D
:101BC0000E94AA08B701A6018DA19EA1AFA1B8A548
:101BD000481B590B6A0B7B0BC8010E9459080E94D5
:101BE0000208C8010E942908CE010C960E9429080B
:101BF00065EA71E0CE010C960E94E408BE01645FC4
:101C00007F4FC8010E94AA08B501A401C8010E9423
:101C100059080E940208C8010E942908CE010C96AA
:101C20000E94290862ED71E0CE010C960E94E40842
:101C3000BE01645F7F4FC8010E94AA08B301A201E0
:101C4000C8010E9459080E940208C8010E94290880
:101C5000CE010C960E9429080E944D096B017C015F
:101C600083E092E00E94C7060E944D0942E00E9474
:101C700026078AE291E00E94C70620E030E0A90131
:101C8000C701B6010E94D71118160CF050C020E011
:101C900030E040E251E4C701B6010E94540F87FFD3
:101CA00046C08091780290917902019690937902D2
:101CB00080937802079724F061E08DE00E949C00F9
:101CC000181419041A041B040CF09CC08A94892867
:101CD0008A288B2841F460E08DE00E949C001092DD
:101CE00079021092780287E192E00E94C706809004
:101CF000780290907902092C000CAA08BB084AE0EF
:101D0000C501B401B7FE0DC06DE285EF92E00E94FF
:101D1000E00166277727CB01681979098A099B09B1
:101D20004AE00E94D4068AE291E00E94C70681E25E
:101D300092E00E94C70642E0C701B6010E94260752
:101D40008CE292E00E9418070E9419014B015C018D
:101D500088EEC82E83E0D82EE12CF12C0E941901C8
:101D6000681979098A099B09683E734081059105C4
:101D7000A8F3B1E0CB1AD108E108F108E8EE8E0E25
:101D8000E3E09E1EA11CB11CC114D104E104F104C6
:101D900029F72114310409F4CACE0E94AA0188232C
:101DA00009F4C5CE0E940000C2CE8A81FF24F394BC
:101DB000813609F445CE8B81B7E0FB2E8E3609F0D3
:101DC0003FCEA6E0FA2E3CCE8B81F8E0FF2E823784
:101DD00009F036CEE4E0FE2E33CE8B8175E0F72E8F
:101DE000823709F02DCE63E0F62E2ACE59E0F52E8B
:101DF00027CE4AE0F42E24CE3BE0F32E21CE2CE079
:101E0000F22E1ECEA2E04A165104610471040CF0B9
:101E10006ACF61CFFB01DC0102C005900D924150F9
:101E20005040D8F70895BB272A3051F4992342F443
:101E3000BDE290958095709561957F4F8F4F9F4F34
:101E40000C94230FBB27FA01A62F62177105810599
:101E50009105330B30FB66F0AA27660F771F881FAA
:101E6000991FAA1FA21710F0A21B63953850A9F75B
:101E7000A05DAA3308F0A95DA19336F7B111B19323
:101E80001082CA010C94440FDC01FC01672F719190
:101E90007723E1F7329704C07C916D937083629150
:101EA000AE17BF07C8F308950E94960F08F481E0AB
:101EB0000895E89409C097FB3EF49095809570953D
:101EC00061957F4F8F4F9F4F9923A9F0F92F96E986
:101ED000BB279395F695879577956795B795F111FB
:101EE000F8CFFAF4BB0F11F460FF1BC06F5F7F4F98
:101EF0008F4F9F4F16C0882311F096E911C07723AA
:101F000021F09EE8872F762F05C0662371F096E8B2
:101F1000862F70E060E02AF09A95660F771F881F81
:101F2000DAF7880F9695879597F90895990F000825
:101F3000550FAA0BE0E8FEEF16161706E807F9079B
:101F4000C0F012161306E407F50798F0621B730B36
:101F5000840B950B39F40A2661F0232B242B252BB7
:101F600021F408950A2609F4A140A6958FEF811D5A
:101F7000811D08950E94CD0F0C943E100E943010D8
:101F800038F00E94371020F0952311F00C942710A0
:101F90000C942D1011240C9472100E944F1070F3A9
:101FA000959FC1F3950F50E0551F629FF001729FFE
:101FB000BB27F00DB11D639FAA27F00DB11DAA1F0D
:101FC000649F6627B00DA11D661F829F2227B00D5A
:101FD000A11D621F739FB00DA11D621F839FA00DE5
:101FE000611D221F749F3327A00D611D231F849F35
:101FF000600D211D822F762F6A2F11249F5750408C
:102000009AF0F1F088234AF0EE0FFF1FBB1F661F06
:10201000771F881F91505040A9F79E3F510580F0CF
:102020000C9427100C9472105F3FE4F3983ED4F3A5
:10203000869577956795B795F795E7959F5FC1F773
:10204000FE2B880F911D9695879597F9089597F91E
:102050009F6780E870E060E008959FEF80EC08954E
:1020600000240A9416161706180609060895002477
:102070000A9412161306140605060895092E0394F1
:10208000000C11F4882352F0BB0F40F4BF2B11F465
:1020900060FF04C06F5F7F4F8F4F9F4F089557FDC4
:1020A0009058440F551F59F05F3F71F04795880FC6
:1020B00097FB991F61F09F3F79F08795089512165D
:1020C00013061406551FF2CF4695F1DF08C0161609
:1020D00017061806991FF1CF8695710561050894BA
:1020E0000895E894BB2766277727CB0197F90895D1
:1020F0000E94BA10A59F900DB49F900DA49F800DD3
:10210000911D112408952F923F924F925F926F92EA
:102110007F928F929F92AF92BF92CF92DF92EF9277
:10212000FF920F931F93CF93DF93CDB7DEB7CA1BF8
:10213000DB0B0FB6F894DEBF0FBECDBF09942A8823
:10214000398848885F846E847D848C849B84AA84CB
:10215000B984C884DF80EE80FD800C811B81AA8158
:10216000B981CE0FD11D0FB6F894DEBF0FBECDBF23
:10217000ED010895A29FB001B39FC001A39F700D10
:10218000811D1124911DB29F700D811D1124911D7F
:1021900008955058BB27AA270E94E1100C943E10C6
:1021A0000E94301038F00E94371020F039F49F3F21
:1021B00019F426F40C942D100EF4E095E7FB0C9422
:1021C0002710E92F0E944F1058F3BA1762077307C0
:1021D0008407950720F079F4A6F50C9471100EF49D
:1021E000E0950B2EBA2FA02D0B01B90190010C0127
:1021F000CA01A0011124FF27591B99F0593F50F43F
:10220000503E68F11A16F040A22F232F342F442796
:10221000585FF3CF469537952795A795F04053958E
:10222000C9F77EF41F16BA0B620B730B840BBAF05E
:102230009150A1F0FF0FBB1F661F771F881FC2F7C9
:102240000EC0BA0F621F731F841F48F487957795DD
:102250006795B795F7959E3F08F0B0CF9395880F97
:1022600008F09927EE0F9795879508950E944A11D7
:102270000C943E100E94371058F00E94301040F02D
:1022800029F45F3F29F00C94271051110C9472101F
:102290000C942D100E944F1068F39923B1F355232D
:1022A00091F3951B550BBB27AA2762177307840769
:1022B00038F09F5F5F4F220F331F441FAA1FA9F3FF
:1022C00035D00E2E3AF0E0E832D091505040E695ED
:1022D000001CCAF72BD0FE2F29D0660F771F881F4E
:1022E000BB1F261737074807AB07B0E809F0BB0B41
:1022F000802DBF01FF2793585F4F3AF09E3F510555
:1023000078F00C9427100C9472105F3FE4F3983E21
:10231000D4F3869577956795B795F7959F5FC9F73D
:10232000880F911D9695879597F90895E1E0660FBE
:10233000771F881FBB1F621773078407BA0720F037
:10234000621B730B840BBA0BEE1F88F7E0950895A0
:102350000E94571088F09F5798F0B92F9927B751CE
:10236000B0F0E1F0660F771F881F991F1AF0BA9539
:10237000C9F714C0B13091F00E947110B1E0089516
:102380000C947110672F782F8827B85F39F0B93F08
:10239000CCF3869577956795B395D9F73EF49095EC
:1023A0008095709561957F4F8F4F9F4F08950E9444
:1023B000960F08F48FEF08950E94960F880B990BE3
:1023C0000895991B79E004C0991F961708F0961B91
:1023D000881F7A95C9F780950895A1E21A2EAA1B45
:1023E000BB1BFD010DC0AA1FBB1FEE1FFF1FA217C5
:1023F000B307E407F50720F0A21BB30BE40BF50BC2
:10240000661F771F881F991F1A9469F7609570954A
:10241000809590959B01AC01BD01CF010895EE0F11
:10242000FF1F0590F491E02D09940F931F93CF9314
:10243000DF938230910510F482E090E0E091A803F0
:10244000F091A90330E020E0B0E0A0E0309799F4EB
:102450002115310509F44AC0281B390B24303105F8
:10246000D8F58A819B816115710589F1FB01938300
:102470008283FE0111C0408151810281138148177E
:102480005907E0F04817590799F4109761F0129630
:102490000C93129713961C933296CF01DF91CF9134
:1024A0001F910F9108950093A8031093A903F4CFEF
:1024B0002115310551F04217530738F0A901DB010E
:1024C0009A01BD01DF01F801C1CFEF01F9CF90936F
:1024D000A9038093A803CDCFFE01E20FF31F8193E0
:1024E00091932250310939832883D7CF2091A603B5
:1024F0003091A703232B41F4209102013091030175
:102500003093A7032093A60320910001309101018D
:102510002115310541F42DB73EB74091040150918A
:102520000501241B350BE091A603F091A703E217E8
:10253000F307A0F42E1B3F0B2817390778F0AC01E6
:102540004E5F5F4F2417350748F04E0F5F1F5093C3
:10255000A7034093A603819391939FCFF0E0E0E01F
:102560009CCFCF93DF930097E9F0FC013297138261
:102570001282A091A803B091A903ED0130E020E000
:102580001097A1F420813181820F931F2091A6031F
:102590003091A7032817390709F061C0F093A7030A
:1025A000E093A603DF91CF910895EA01CE17DF07EC
:1025B000E8F54A815B819E0141155105B1F7E901BA
:1025C000FB83EA8349915991C40FD51FEC17FD078E
:1025D00061F4808191810296840F951FE9019983AE
:1025E0008883828193819B838A83F0E0E0E0129666
:1025F0008D919C9113970097B9F52D913C9111976E
:10260000CD010296820F931F2091A6033091A7035C
:102610002817390739F6309751F51092A90310920F
:10262000A803B093A703A093A603BCCFD383C28310
:1026300040815181840F951FC817D90761F44E5FFF
:102640005F4F88819981480F591F518340838A8148
:102650009B81938382832115310509F0B0CFF093DC
:10266000A903E093A8039ECFFD01DC01C0CF138234
:102670001282D7CFB0E0A0E0E0E4F3E10C94851043
:102680008C01009751F4CB010E9415128C01C801F6
:10269000CDB7DEB7E0E10C94A110FC01E60FF71F07
:1026A0009C0122503109E217F30708F49DC0D901BB
:1026B000CD91DC911197C617D70798F0C530D10599
:1026C00030F3CE0104978617970708F3C61BD70B84
:1026D0002297C193D1936D937C93CF010E94B11245
:1026E000D6CF5B01AC1ABD0A4C018C0E9D1EA09189
:1026F000A803B091A903512C412CF12CE12C109787
:1027000031F58091A6039091A7038815990509F0EA
:102710005CC04616570608F058C0809100019091A1
:102720000101009741F48DB79EB74091040150918B
:102730000501841B950BE817F90708F055C0F093C5
:10274000A703E093A603F90171836083A0CF8D9165
:102750009C91119712966C90129713967C901397F8
:10276000A815B90559F56C0142E0C40ED11CCA1474
:10277000DB0420F1AC014A195B09DA0112961597C6
:1027800080F06282738251834083D9016D937C9380
:10279000E114F10471F0D7011396FC93EE931297B4
:1027A00076CF22968C0F9D1FF90191838083F301D0
:1027B000EFCFF093A903E093A80369CF4816590619
:1027C00008F42C017D01D3019ACFCB010E94151290
:1027D0007C01009749F0AE01B8010E94FC13C801CA
:1027E0000E94B112870153CF10E000E050CF81E08A
:1027F00090E0F8940C940C14FB01DC0102C00190F1
:102800000D9241505040D8F70895FB01DC01019032
:102810000D920020E1F70895F894FFCF0000AA037D
:10282000800000000000E00140016D012D029E01CA
:102830007C01900100000000FA03CD032904A303EA
:10284000C603B303A4030D0A006E616E00696E66D1
:10285000006F766600436F756C646E27742066693E
:102860006E642052544300525443206973204E4FEB
:10287000542072756E6E696E672C206C65742773B8
:1028800020736574207468652074696D6521004447
:102890006966666572656E636520696E207365633F
:1028A0006F6E6473206265747765656E206E6F6FFE
:1028B0006E20616E64206D69646E696768743A09A0
:1028C00000446966666572656E636520696E207393
:1028D00065636F6E6473206265747765656E206EE4
:1028E0006F7720616E64206E6F6F6E3A09004469E5
:1028F00066666572656E636520696E207365636FD9
:102900006E6473206265747765656E206E6F7720E4
:10291000616E64206D69646E696768743A09004D80
:10292000656173757265642064697374616E636553
:102930003A2000436F756E7465723A2000446973E3
:0C29400074616E63653A2000636D000056
:107E0000112484B714BE81FFF0D085E080938100F7
:107E100082E08093C00088E18093C10086E0809377
:107E2000C20080E18093C4008EE0C9D0259A86E02C
:107E300020E33CEF91E0309385002093840096BBD3
:107E4000B09BFECF1D9AA8958150A9F7CC24DD24C4
:107E500088248394B5E0AB2EA1E19A2EF3E0BF2EE7
:107E6000A2D0813461F49FD0082FAFD0023811F036
:107E7000013811F484E001C083E08DD089C08234E0
:107E800011F484E103C0853419F485E0A6D080C0E4
:107E9000853579F488D0E82EFF2485D0082F10E0AE
:107EA000102F00270E291F29000F111F8ED06801E7
:107EB0006FC0863521F484E090D080E0DECF843638
:107EC00009F040C070D06FD0082F6DD080E0C81688
:107ED00080E7D80618F4F601B7BEE895C0E0D1E017
:107EE00062D089930C17E1F7F0E0CF16F0E7DF06D8
:107EF00018F0F601B7BEE89568D007B600FCFDCFD4
:107F0000A601A0E0B1E02C9130E011968C91119780
:107F100090E0982F8827822B932B1296FA010C0160
:107F200087BEE89511244E5F5F4FF1E0A038BF0790
:107F300051F7F601A7BEE89507B600FCFDCF97BE46
:107F4000E89526C08437B1F42ED02DD0F82E2BD052
:107F50003CD0F601EF2C8F010F5F1F4F84911BD097
:107F6000EA94F801C1F70894C11CD11CFA94CF0C13
:107F7000D11C0EC0853739F428D08EE10CD085E9AC
:107F80000AD08FE07ACF813511F488E018D01DD067
:107F900080E101D065CF982F8091C00085FFFCCF94
:107FA0009093C60008958091C00087FFFCCF809118
:107FB000C00084FD01C0A8958091C6000895E0E648
:107FC000F0E098E1908380830895EDDF803219F02E
:107FD00088E0F5DFFFCF84E1DECF1F93182FE3DFCA
:107FE0001150E9F7F2DF1F91089580E0E8DFEE27F6
:047FF000FF270994CA
:027FFE00040479
:00000001FF
