:100000000C9472000C940E080C94E7070C949A0060
:100010000C949A000C949A000C949A000C949A00F8
:100020000C949A000C949A000C949A000C949A00E8
:100030000C949A000C949A000C949A000C949A00D8
:100040000C949D070C949A000C945B080C94350852
:100050000C949A000C949A000C949A000C949A00B8
:100060000C948D080C949A001F1C1F1E1F1E1F1F2E
:100070001E1F1E00000000240027002A0031393A0C
:1000800030323A3237004175672032372032303211
:10009000330000000000250028002B0000000000B5
:1000A00023002600290004040404040404040202BA
:1000B00002020202030303030303010204081020E7
:1000C00040800102040810200102040810200000F2
:1000D0000008000201000003040700000000000007
:1000E0000000AC0911241FBECFEFD8E0DEBFCDBFAA
:1000F00023E0A6E0B2E001C01D92AE38B207E1F7FE
:1001000012E0A0E0B1E0EAEEF4E202C005900D9248
:10011000A630B107D9F710E0C2E7D0E004C02197BC
:10012000FE010E947B10C137D107C9F70E94F40974
:100130000C9473120C94000008950895833081F09C
:1001400028F4813099F08230A9F008958730A9F021
:100150008830C9F08430B1F4809180008F7D03C075
:10016000809180008F7780938000089584B58F7789
:1001700084BD089584B58F7DFBCF8091B0008F77CB
:100180008093B00008958091B0008F7DF9CFCF9318
:10019000DF93282F30E0F901E253FF4F8491F901FA
:1001A000E654FF4FD491F901EA55FF4FC491CC2397
:1001B000A1F081110E949E00EC2FF0E0EE0FFF1FD6
:1001C000E456FF4FA591B491EC91ED2381E090E0CE
:1001D00009F480E0DF91CF91089580E090E0FACFBC
:1001E0001F93CF93DF93282F30E0F901E253FF4FA5
:1001F0008491F901E654FF4FD491F901EA55FF4F7C
:10020000C491CC23A9F0162F81110E949E00EC2FDF
:10021000F0E0EE0FFF1FEE56FF4FA591B4918FB7A0
:10022000F894EC91111108C0D095DE23DC938FBFB8
:10023000DF91CF911F910895DE2BF8CF3FB7F8944F
:1002400080917B0290917C02A0917D02B0917E0210
:1002500026B5A89B05C02F3F19F00196A11DB11D21
:100260003FBFBA2FA92F982F8827BC01CD01620F5D
:10027000711D811D911D42E0660F771F881F991F18
:100280004A95D1F708958F929F92AF92BF92CF92E5
:10029000DF92EF92FF924B015C010E941E016B0105
:1002A0007C010E941E016C197D098E099F09683E20
:1002B000734081059105A8F321E0821A9108A108F5
:1002C000B10888EEC80E83E0D81EE11CF11C811431
:1002D0009104A104B10429F7FF90EF90DF90CF9033
:1002E000BF90AF909F908F9008950895AF92BF9266
:1002F000CF92DF92EF92FF920F931F93CF93DF93F2
:100300006C017B018B01040F151FEB015E01AE1820
:10031000BF08C017D10759F06991D601ED91FC9142
:100320000190F081E02DC6010995892B79F7C5016F
:10033000DF91CF911F910F91FF90EF90DF90CF90C1
:10034000BF90AF900895FC01538D448D252F30E070
:10035000842F90E0821B930B541710F0CF960895D2
:1003600001970895FC01918D828D981761F0A28DFF
:10037000AE0FBF2FB11D5D968C91928D9F5F9F73C5
:10038000928F90E008958FEF9FEF0895FC01918D7B
:10039000828D981731F0828DE80FF11D858D90E0E8
:1003A00008958FEF9FEF0895FC01918D228D892F85
:1003B00090E0805C9F4F821B91098F73992708956D
:1003C00085ED92E00E94D40121E0892B09F420E020
:1003D000822F089580E090E0892B29F00E94E001AF
:1003E00081110C9400000895FC01A48DA80FB92F71
:1003F000B11DA35ABF4F2C91848D90E001968F734D
:100400009927848FA689B7892C93A089B1898C916B
:10041000837080648C93938D848D981306C00288BA
:10042000F389E02D80818F7D80830895EF92FF9284
:100430000F931F93CF93DF93EC0181E0888F9B8D07
:100440008C8D98131AC0E889F989808185FF15C0C1
:100450009FB7F894EE89FF896083E889F9898081E4
:100460008370806480839FBF81E090E0DF91CF91B3
:100470001F910F91FF90EF900895F62E0B8D10E0D5
:100480000F5F1F4F0F731127E02E8C8D8E110CC044
:100490000FB607FCFACFE889F989808185FFF5CF8F
:1004A000CE010E94F401F1CFEB8DEC0FFD2FF11D79
:1004B000E35AFF4FF0829FB7F8940B8FEA89FB89CC
:1004C00080818062CFCFCF93DF93EC01888D88232A
:1004D000B9F0AA89BB89E889F9898C9185FD03C0A7
:1004E000808186FD0DC00FB607FCF7CF8C9185FF8C
:1004F000F2CF808185FFEDCFCE010E94F401E9CFDC
:10050000DF91CF910895EF92FF920F931F93CF93B6
:10051000DF93EC0169813881432F50E02A81822FDB
:1005200090E0E8E6F0E021E0261730F47491870FC0
:10053000911D2F5F3196F8CF633018F0337009F4B6
:1005400001966DE671E0469F9001479F300D569FE2
:10055000300D1124215031094D5F5F4F569547955D
:1005600056954795240F351F280F391FA8E1B0E095
:100570000E943E102B817B018C01E20EF11C011DBB
:10058000111DA8019701ACE3B0E00E94FC0F2C8183
:100590007B018C01E20EF11C011D111DA8019701C8
:1005A0000E94FC0FAB01BC019D81892F90E0B0E05F
:1005B000A0E080589C4BA249B74C8A019B01080FD0
:1005C000191F2A1F3B1FC901B801DF91CF911F914D
:1005D0000F91FF90EF900895FC01908190539A3015
:1005E00008F090E0818180532AE0929F800D1124D1
:1005F000089520912702260F3327331F213231051A
:10060000ECF42091AB02FC0190E080E0243069F032
:1006100082E00895A09127022191AC01495F5D4FCE
:10062000A40FB52FB11D2C930196861798F38091D6
:100630002702680F6093270280E0089581E0089503
:100640001092AB0281E08093AA021092850261E0D1
:1006500082E10E94F00061E083E10E94F000E9EB9A
:10066000F0E080818E7F808380818D7F808388E42D
:100670008093B80085E48093BC00089510928402B2
:10068000109283021092B2021092D4020E942003B0
:100690008CE990E090938202809381028DE990E052
:1006A0009093800280937F020895CF93DF9391E02F
:1006B000909306028823B9F0C091B800D091BA0097
:1006C0008091BC008A7B8093BC0060E082E10E9444
:1006D000F00060E083E10E94F0000E942003D093CC
:1006E000BA00C093B800DF91CF9108958F929F9286
:1006F000AF92BF92CF92DF92EF92FF920F931F9330
:10070000CF93DF93D091D402D13208F0D7C0182F05
:10071000C091D3020E941E016B017C018091AB024B
:1007200081116BC082E08093AB021093AA028FEF1D
:100730008093A9021092A802D093A702A3EBB2E083
:10074000E7E8F2E080E0D81391C010928602809131
:100750008602CC0FC82BC09386028091850281301F
:1007600009F088C0109285020E941E016B017C0175
:10077000809186028093BB008091AD029091AE0281
:10078000A091AF02B091B002892B8A2B8B2BA1F0E4
:100790000E941E010091AD021091AE022091AF02A5
:1007A0003091B0026C197D098E099F090617170751
:1007B0002807390708F442C08091BC0083FDD8CFD8
:1007C00085EC8093BC000E941E016B017C0180912E
:1007D000AB02823009F450C08091A9028F3F09F426
:1007E0006FC08091A902803209F46CC08091A90287
:1007F000803309F469C084E026C08091AD029091F5
:10080000AE02A091AF02B091B002892B8A2B8B2B44
:1008100009F484CF0E941E018090AD029090AE0238
:10082000A090AF02B090B0026C197D098E099F09AB
:1008300086169706A806B90608F070CF8091AC021C
:100840000E94550385E01092B2021092D4021092D9
:10085000B102DF91CF911F910F91FF90EF90DF9048
:10086000CF90BF90AF909F908F9008959D9191935E
:100870008F5F69CF85EEA5CF8091AD029091AE02DA
:10088000A091AF02B091B002892B8A2B8B2B09F477
:100890009ECF0E941E010091AD021091AE022091E8
:1008A000AF023091B0026C197D098E099F090617BD
:1008B00017072807390708F08ACFC0CF81E0C3CFD8
:1008C00080E0C1CF82E0BFCF83E0BDCF1F93CF9345
:1008D000DF93EA01122FDC0111968D919C91DC01CE
:1008E000ED91FC910280F381E02D0995C817D9079D
:1008F00029F4812F0E94760391E0811190E0892FE5
:10090000DF91CF911F910895CF93DF93EC018B81FD
:100910008823A1F0888191E09093B1028093D30263
:100920001092B2021092D40281E00E94760391E00C
:10093000811190E0892FDF91CF9108950E943E03AD
:1009400081E08B83CE010E948404982F8111E2CF35
:10095000F1CF0895E091840280918302E81730F48A
:10096000F0E0E55BFD4F808190E008958FEF9FEF11
:10097000089590918402809183022FEF3FEF9817A2
:1009800048F4E92FF0E0E55BFD4F208130E09F5F08
:1009900090938402C901089580918302909184020A
:1009A000891B990B0895CF92DF92EF92FF920F93DC
:1009B0001F93CF93DF937C01CB018A012091B10279
:1009C000222389F0EB016B01C40ED51ECC15DD0589
:1009D00069F06991D701ED91FC910190F081E02DD2
:1009E000C7010995F3CF642F0E94F902C801DF9176
:1009F000CF911F910F91FF90EF90DF90CF900895CE
:100A0000CF93DF931F92CDB7DEB769832091B102F8
:100A10002223F9F02091D402203258F021E030E076
:100A2000FC013383228390E080E00F90DF91CF912F
:100A300008958091B202E82FF0E0ED54FD4F9981C6
:100A400090838F5F8093B2028093D40281E090E024
:100A5000ECCF61E0CE0101960E94F902F7CFFC01D4
:100A6000248131E03093B1022093D3021092B2027C
:100A70001092D4028385682B82E793E00E940005E0
:100A800081E00C947603089590E080E008958091D1
:100A90004A02882361F080917002811108C082E0CF
:100AA0000E94C700019719F481E0809370020895B5
:100AB0000F931F93CF938C01C62F0E942F056C2F8D
:100AC0006460C8010E942F056C2F6B7FC8010E94D3
:100AD0002F0583EC90E00197F1F7CF911F910F91D3
:100AE00008950F931F93CF93DF938C01D62FC42FBC
:100AF000607F642B0E94580580E1D89FB0011124CB
:100B00006C2BC801DF91CF911F910F910C94580568
:100B1000CF93DF93CDB7DEB728970FB6F894DEBF3B
:100B20000FBECDBF98E0EAE0F1E0DE011196019042
:100B30000D929A95E1F790918603981708F48FEF3C
:100B400090E0880F991F21E030E02C0F3D1F820FAD
:100B5000931FFC016081606840E08EE793E0289677
:100B60000FB6F894DEBF0FBECDBFDF91CF910C94CE
:100B7000710541E00E94710581E090E00895CF93F6
:100B8000DF93EC0188819981009711F00E941D117B
:100B9000198218821D821C821B821A82DF91CF91DA
:100BA0000895FC0180819181009711F00C941D1132
:100BB0000895FB0101900020E9F73197AF01461B32
:100BC000570BDC01ED91FC910280F381E02D09943B
:100BD000CF93DF93FC01448155816081718185ED64
:100BE00092E00E947601EC0162E471E085ED92E012
:100BF0000E94D9058C0F9D1FDF91CF9108958F9290
:100C00009F92AF92BF92EF92FF920F931F93CF9359
:100C1000DF93CDB7DEB7A1970FB6F894DEBF0FBE56
:100C2000CDBF7C01FA01CB0119A2223008F42AE0E1
:100C30008E010F5D1F4F822E912CB12CA12CBF0174
:100C4000A50194010E945910F901CA016A300CF5FE
:100C5000605DD8016E938D01232B242B252B79F712
:100C600090E080E0109721F0BD01C7010E94D905F6
:100C7000A1960FB6F894DEBF0FBECDBFDF91CF9126
:100C80001F910F91FF90EF90BF90AF909F908F902A
:100C90000895695CDECF462F50E070E060E02AE006
:100CA0000C94FF05CF92DF92EF92FF926C01990FA7
:100CB000EE08FF08F7FE18C041E06DE28EE793E012
:100CC0000E94710544275527BA014C195D096E0928
:100CD0007F092AE08EE793E00E94FF050196FF90CE
:100CE000EF90DF90CF9008952AE0B701A6018EE73C
:100CF00093E0FF90EF90DF90CF900C94FF050C9461
:100D0000D9050F931F93CF93DF93EC0188819981CD
:100D1000009759F02A813B812617370730F081E090
:100D2000DF91CF911F910F9108958B016F5F7F4FDE
:100D30000E94A611009759F0998388831B830A8328
:100D40002C813D81232B59F7FC011082E8CF80E0F4
:100D5000E7CFCF92DF92EF92FF920F931F93CF9343
:100D6000DF93CDB7DEB72E970FB6F894DEBF0FBE78
:100D7000CDBF7C01CB01BA012AE0AE014F5F5F4FCE
:100D80006A010E94BB0FF60101900020E9F731973C
:100D9000EC19FD09D9F0D70114960D911C910E0F95
:100DA0001F1FB801C7010E9481068823F9F0F701CF
:100DB0002081318184819581B601820F931F0E9429
:100DC0006C12D70115961C930E931497C7012E969B
:100DD0000FB6F894DEBF0FBECDBFDF91CF911F914C
:100DE0000F91FF90EF90DF90CF900895C7010E9480
:100DF000BF05ECCFEF92FF920F931F93CF93DF933A
:100E0000EC01198218821B821A821D821C828617AD
:100E1000970719F1FB010081118101151105E9F016
:100E2000E480F580B7010E948106811109C0CE01DE
:100E3000DF91CF911F910F91FF90EF900C94BF0520
:100E4000FD82EC82B80188819981DF91CF911F9159
:100E50000F91FF90EF900C946C12DF91CF911F9146
:100E60000F91FF90EF900895EF92FF920F931F93D1
:100E7000CF93DF93EC017B01198218821B821A82C7
:100E80001D821C82FB0101900020E9F731978F0140
:100E9000061B170BB8010E948106811109C0CE0103
:100EA000DF91CF911F910F91FF90EF900C94BF05B0
:100EB0001D830C83B70188819981DF91CF911F91A8
:100EC0000F91FF90EF900C946C1285ED8093BC0015
:100ED0008091AD029091AE02A091AF02B091B002AC
:100EE0000796A11DB11D23E0B695A7959795879507
:100EF0002A95D1F72091BC0024FD03C01092AB02CB
:100F000008954091AD025091AE026091AF02709190
:100F1000B002452B462B472B69F30097A105B1057D
:100F200041F02AE22A95F1F700C00197A109B10921
:100F3000E1CF8091AC020C9455031F920F920FB633
:100F40000F9211242F933F938F939F93AF93BF934F
:100F50008091770290917802A0917902B0917A0203
:100F60003091760223E0230F2D3758F50196A11D0D
:100F7000B11D209376028093770290937802A0931C
:100F80007902B0937A0280917B0290917C02A091C9
:100F90007D02B0917E020196A11DB11D80937B025E
:100FA00090937C02A0937D02B0937E02BF91AF919B
:100FB0009F918F913F912F910F900FBE0F901F9097
:100FC000189526E8230F0296A11DB11DD2CF1F92BE
:100FD0000F920FB60F9211242F933F934F935F936D
:100FE0006F937F938F939F93AF93BF93EF93FF93F1
:100FF000E0910201F09103010995FF91EF91BF91FA
:10100000AF919F918F917F916F915F914F913F91A0
:101010002F910F900FBE0F901F9018951F920F9257
:101020000FB60F9211242F933F934F935F936F93BB
:101030007F938F939F93AF93BF93EF93FF93E09131
:101040000001F09101010995FF91EF91BF91AF91DE
:101050009F918F917F916F915F914F913F912F91D0
:101060000F900FBE0F901F9018951F920F920FB602
:101070000F9211242F933F934F935F936F937F931E
:101080008F939F93AF93BF93EF93FF9385ED92E080
:101090000E94F401FF91EF91BF91AF919F918F91C9
:1010A0007F916F915F914F913F912F910F900FBE64
:1010B0000F901F9018951F920F920FB60F92112448
:1010C0002F938F939F93EF93FF93E091E502F0911D
:1010D000E6028081E091EB02F091EC0282FD1BC000
:1010E00090818091EE028F5F8F732091EF028217C3
:1010F00041F0E091EE02F0E0EB52FD4F958F8093CE
:10110000EE02FF91EF919F918F912F910F900FBE63
:101110000F901F9018958081F4CF1F920F920FB6F9
:101120000F9211242F933F934F935F936F937F936D
:101130008F939F93AF93BF93EF93FF938091B900E9
:10114000887F803609F44AC0F0F5883209F4A7C0D8
:1011500018F5803109F49BC0B8F4882309F4F9C06C
:10116000883009F494C0FF91EF91BF91AF919F91A6
:101170008F917F916F915F914F913F912F910F9040
:101180000FBE0F901F901895883109F488C08032E7
:1011900051F78093A90214C0803409F49DC040F433
:1011A0008033B9F38833F9F68093A90285ECB0C097
:1011B000803509F485C0883509F496C0883499F6DD
:1011C0000E946507D0CF883909F48CC038F588377C
:1011D00029F050F4883611F0803729F683E08093A7
:1011E000AB021092490257C0883809F47BC080399D
:1011F00019F0803809F0B7CF80914902803208F0A9
:1012000071C0E091490281E08E0F80934902809184
:10121000BB00F0E0E75DFD4F80833DC0803B39F0CF
:10122000E0F4803A09F479C0883A09F09CCF84E070
:101230008093AB021092280210922702E091810263
:10124000F091820209958091270281110FC081E0FF
:10125000809327021092070209C0803C09F4A6CFB0
:10126000883C09F4A3CF883B09F07DCFE0912802A8
:1012700081E08E0F80932802F0E0E95FFD4F8081CE
:101280008093BB00909128028091270229C0809111
:1012900086028093BB0085EC8093BC0064CF909164
:1012A000A8028091A702981758F5E091A80281E062
:1012B0008E0F8093A802F0E0E957FD4F8081E9CFBF
:1012C000E091A80281E08E0F8093A8028091BB007C
:1012D000F0E0E957FD4F80839091A8028091A7022A
:1012E0009817C8F285E8D8CFE091A80281E08E0F68
:1012F0008093A8028091BB00F0E0E957FD4F808306
:101300008091AA0281115CCF81E08093850284EAFA
:101310008093BC001092AB0226CF85EC8093BC007A
:101320001092AB0280914902803230F4E091490280
:10133000F0E0E75DFD4F10826091490270E0E091BE
:101340007F02F091800289E292E0099510924902B1
:101350000ACF1092A90234CFE5EDF2E01382128297
:1013600088EE93E0A0E0B0E084839583A683B78302
:1013700026E131E03183208325EC30E03587248776
:1013800024EC30E03787268720EC30E0318B208B4F
:1013900021EC30E0338B228B22EC30E0358B248B38
:1013A00026EC30E0378B268B118E128E138E148E26
:1013B000E2E7F3E01382128284839583A683B783E6
:1013C00088E291E091838083EEE7F3E0138212825A
:1013D0008AE391E09183808387E2848380E181873F
:1013E00082E0828713860895CF93DF93CDB7DEB76F
:1013F000A8970FB6F894DEBF0FBECDBF789484B522
:10140000826084BD84B5816084BD85B5826085BD00
:1014100085B5816085BD80916E00816080936E008E
:101420001092810080918100826080938100809180
:101430008100816080938100809180008160809331
:1014400080008091B10084608093B1008091B000F1
:1014500081608093B00080917A00846080937A00EC
:1014600080917A00826080937A0080917A00816016
:1014700080937A0080917A00806880937A0010923D
:10148000C1000E943E0381E08093B10287E2809315
:10149000D3021092B2021092D40281E00E9476032D
:1014A0008823D9F010928103109280038FE38093F8
:1014B00082038E81809383038F8180938403888548
:1014C0008093850389858093860380E180938703D9
:1014D00082E08093880310928903E091E502F09105
:1014E000E60282E08083E091E102F091E202108264
:1014F000E091E302F091E4028FEC80831092ED0220
:10150000E091E902F091EA0286E08083E091E7024F
:10151000F091E802808180618083E091E702F091A0
:10152000E802808188608083E091E702F091E80220
:10153000808180688083E091E702F091E8028081F9
:101540008F7D80830E943E031092830380918803E5
:10155000823018F098E0909383038093860362E3CF
:1015600070E080E090E00E944301609189038EE783
:1015700093E00E942F0568EE73E080E090E00E9407
:10158000430160E38EE793E00E9458050BE416E404
:10159000C8010197F1F760E38EE793E00E945805D8
:1015A000C8010197F1F760E38EE793E00E945805C8
:1015B00083E592E00197F1F760E28EE793E00E9405
:1015C000580560918303606240E08EE793E00E94DB
:1015D000710584E08093840340E06CE08EE793E043
:1015E0000E94710540E061E08EE793E00E94710582
:1015F0000BE31FE1C8010197F1F782E080938503B7
:1016000040E066E08EE793E00E94710540E062E012
:101610008EE793E00E947105C8010197F1F788E019
:101620008093890360E08EE793E00E942F0565E4D4
:1016300071E08EE793E00E947F06809174029091A2
:101640007502009711F00E941D1186E090E00E9443
:1016500081108C0188E6D8018C9382E793E0129682
:101660009C938E93119713961C92139780E290E0AF
:1016700015969C938E9314971093750200937402A1
:101680000E943E0381E0F8018383C8010E94840424
:101690004BE050E066E870E08E010F5F1F4FC8011D
:1016A0000E94B20FCE010A960E94EC02E82EE98158
:1016B000E154E331E0F40E2E000CFF0BEE59F44F31
:1016C0000C947B10F10C770B770B0C0D770B750BD3
:1016D000770B770B770BE20C770B770BFA0C090D76
:1016E000060D770B770B770B030D52E0F52ECE012D
:1016F00005960E94EC02D82E48E050E06DE770E0BD
:10170000C8010E94B20FC8010E94EC02C82ECE018F
:1017100004960E94EC02B82ECE0107960E94EC02BD
:10172000382F86E0D8011D928A95E9F72AE0832FA9
:10173000622F0E944D10982F880F890F880F830FFA
:101740008A838B2D0E944D10982F880F890F880F48
:101750008B0D8B838C2D0E944D10982F880F890F35
:10176000880F8C0D8C838D2D0E944D10982F880F23
:10177000890F880F8D0D8E838F2D0E944D10982F0D
:10178000990F890F880FF80EFF828E2D0E944D1041
:10179000982F880F890F880F8E0D8887809174028B
:1017A00090917502FC01248135812830310580F04B
:1017B000208131E03093B1022093D3021092B20223
:1017C0001092D40221E048E050E0B8010E94660483
:1017D000E7ECF0E02491E3EBF0E08491882399F0CA
:1017E00090E0880F991FFC01ED58FF4FA591B4912F
:1017F000FC01EE56FF4F859194918FB7F894EC91D0
:10180000E22BEC938FBFECEBF0E02491E8EAF0E000
:1018100084918823C9F090E0880F991FFC01ED584E
:10182000FF4FA591B491FC01EE56FF4F45915491A5
:101830009FB7F8948C91E22FE0958E238C93DA0178
:101840008C91E823EC939FBF87E495E0909301018E
:101850008093000180916900836080936900E89A19
:1018600081E080934A0247E0242E312C1982809037
:10187000740290907502F40184819581892B09F49A
:1018800042C1808191E09093B1028093D302109283
:10189000B2021092D40220E041E050E0B801C4014D
:1018A0000E946604882309F42EC1B12CA12CD40116
:1018B00014968D919C916101CA18DB088C159D05C9
:1018C00008F46C01F401E0800E941E012B013C0130
:1018D0008091AB028111A3C0FC2CF0E2FC1510F446
:1018E00030E2F32E81E08093AB0221E0C1018C193C
:1018F0009D09A816B90608F420E02093AA029FEFDC
:101900009093A9021092A8028FEF8F0D8093A702E7
:10191000A1E0A093860280918602EE0CE82AE09274
:10192000860280918502813009F0C0C01092850244
:101930000E941E012B013C01809186028093BB0016
:101940008091AD029091AE02A091AF02B091B00231
:10195000892B8A2B8B2BA1F00E941E012091AD02B6
:101960003091AE024091AF025091B00264197509F6
:1019700086099709261737074807590708F470C0E2
:101980008091BC0083FDD8CFB5ECB093BC000E9421
:101990001E012B013C018091AB02813009F48AC009
:1019A0008091A8028F1510F4F090A802A7E8B2E089
:1019B000EBE4F2E080E08F1509F457C09D9191931C
:1019C0008F5FF9CF8A81FF24F394813609F48FCE9B
:1019D0008B8147E0F42E8E3609F089CE36E0F32E67
:1019E00086CE8B8128E0F22E823709F080CE94E0FB
:1019F000F92E7DCE8B81B3E0FB2E823709F477CEB2
:101A000085E0F82E74CEA9E0FA2E71CEFAE0FF2E12
:101A10006ECEEBE0FE2E6BCE7CE0F72E68CE809192
:101A2000AD029091AE02A091AF02B091B002892BAD
:101A30008A2B8B2B09F44CCF0E941E012091AD0202
:101A40003091AE024091AF025091B0026419750915
:101A500086099709261737074807590708F038CF2E
:101A60008091AC020E945503F12C10928402F092F6
:101A70008302FC141D0409F046C07801EA0CFB1C2B
:101A80003701C701861997098C159D05A8F5D40162
:101A900011968D919C91DC01ED91FC910284F3856E
:101AA000E02D0995F70181937F01EBCFE5EEE093FF
:101AB000BC006DCF8091AD029091AE02A091AF02BB
:101AC000B091B002892B8A2B8B2B09F464CF0E9432
:101AD0001E012091AD023091AE024091AF025091B3
:101AE000B002641975098609970926173707480750
:101AF000590708F050CFB4CFAC0CBD1CF7E0AF16BF
:101B0000B10408F4D4CE59815F77EA81FB816D81FD
:101B10007E812F81822F90E034E0959587953A95CC
:101B2000E1F7982F990F990F482F491B440F420F47
:101B30004F8F272F30E0A4E035952795AA95E1F740
:101B4000822F880F880F281B220F270F28A3862F8C
:101B500090E0B4E095958795BA95E1F7982F990FA5
:101B6000990F891B880F860F89A36F2F70E084E07F
:101B7000759567958A95E1F7862F880F880F681B02
:101B8000660F6F0F6AA32E2F30E094E035952795EE
:101B90009A95E1F7822F880F880F281B220F2E0FAE
:101BA0002BA3852F90E024E0959587952A95E1F762
:101BB000982F990F990F891B880F850F8CA350E0E0
:101BC0004053584F70E060E02AE085ED92E00E94BB
:101BD000FF0563E571E085ED92E00E947F0668A154
:101BE00085ED92E00E944B0663E571E085ED92E0A1
:101BF0000E947F0669A185ED92E00E944B066BE58D
:101C000071E085ED92E00E947F066AA185ED92E089
:101C10000E944B0665E571E085ED92E00E947F062B
:101C20006BA185ED92E00E944B0665E571E085EDC4
:101C300092E00E947F066CA185ED92E00E944B0627
:101C400063E471E085ED92E00E947F0680E00E94EF
:101C5000880567E571E08EE793E00E947F0680913A
:101C60007202909173020E9452066BE571E08EE75A
:101C700093E00E947F066DE571E08EE793E00E949D
:101C80007F0680917202909173020E9452066BE56A
:101C900071E08EE793E00E947F0667E671E08EE7D1
:101CA00093E00E947F064F8D50E04053584F70E004
:101CB00060E02AE08EE793E00E94FF0563E571E0B3
:101CC0008EE793E00E947F0668A18EE793E00E9472
:101CD0004B0663E571E08EE793E00E947F0669A101
:101CE0008EE793E00E944B0681E00E9488056EE635
:101CF00071E08EE793E00E947F066AA18EE793E091
:101D00000E944B0665E571E08EE793E00E947F0636
:101D10006BA18EE793E00E944B0665E571E08EE7CC
:101D200093E00E947F066CA18EE793E00E944B0631
:101D300080917002882309F467C082E00E94C70086
:101D400081309105B1F421E020936F022FB7F89410
:101D500040917702509178026091790270917A02F5
:101D60002FBF40936B0250936C0260936D0270938F
:101D70006E0220916F02222309F446C0892B09F0DC
:101D800043C02FB7F8948091770290917802A09188
:101D90007902B0917A022FBF40916B0250916C0290
:101DA00060916D0270916E02841B950BA60BB70BB0
:101DB0004497A105B10540F110926F021092700294
:101DC000F090710261E06F25609371028DE00E94D6
:101DD000F0008091720290917302019690937302C9
:101DE00080937202039721F461E08CE00E94F0007E
:101DF00062EE74E080E090E00E944301F092710294
:101E00006F2D8DE00E94F00089A198A12F8D298F60
:101E10009A8F8B8F3CE03C8F1D8E1E8E2B8B9C8B64
:101E20008D8B83E18E8B83E08F8B188ECE0149964C
:101E30000E9483026DA37EA38FA398A7CE01439631
:101E40000E9483024B015C01CE0149960E948302ED
:101E50006B017C01CE014F960E948302C61AD70AFD
:101E6000E80AF90ACE0143960E9483022B013C0145
:101E7000CE014F960E948302461A570A680A790AD1
:101E800065E771E0CE010D960E943407BE01635FE5
:101E90007F4FC8010E94FA064DA15EA16FA178A5EF
:101EA000481959096A097B09C8010E94A9060E94BC
:101EB000E805C8010E94D105CE010D960E94D1050A
:101EC00067EA71E0CE010D960E943407BE01635FA0
:101ED0007F4FC8010E94FA06B701A601C8010E94FF
:101EE000A9060E94E805C8010E94D105CE010D9601
:101EF0000E94D10564ED71E0CE010D960E94340779
:101F0000BE01635F7F4FC8010E94FA06B301A201C0
:101F1000C8010E94A9060E94E805C8010E94D105D7
:101F2000CE010D960E94D1051C141D041E041F0431
:101F300064F045284628472841F460E08CE00E9480
:101F4000F000109273021092720280E090E0892BF0
:101F500009F48CCC0E94E001882309F487CC0E940C
:101F6000000084CCFB01DC0102C005900D924150C1
:101F70005040D8F70895BB272A3051F4992342F4F2
:101F8000BDE290958095709561957F4F8F4F9F4FE3
:101F90000C94CB0FBB27FA01A62F621771058105A0
:101FA0009105330B30FB66F0AA27660F771F881F59
:101FB000991FAA1FA21710F0A21B63953850A9F70A
:101FC000A05DAA3308F0A95DA19336F7B111B193D2
:101FD0001082CA010C94EC0FDC01FC01672F719197
:101FE0007723E1F7329704C07C916D9370836291FF
:101FF000AE17BF07C8F308950E943E10A59F900D2D
:10200000B49F900DA49F800D911D112408952F92CF
:102010003F924F925F926F927F928F929F92AF9278
:10202000BF92CF92DF92EF92FF920F931F93CF93C5
:10203000DF93CDB7DEB7CA1BDB0B0FB6F894DEBF5C
:102040000FBECDBF09942A88398848885F846E8482
:102050007D848C849B84AA84B984C884DF80EE80CC
:10206000FD800C811B81AA81B981CE0FD11D0FB6D5
:10207000F894DEBF0FBECDBFED010895A29FB00161
:10208000B39FC001A39F700D811D1124911DB29FAC
:10209000700D811D1124911D0895991B79E004C0D4
:1020A000991F961708F0961B881F7A95C9F7809597
:1020B0000895A1E21A2EAA1BBB1BFD010DC0AA1F89
:1020C000BB1FEE1FFF1FA217B307E407F50720F0A1
:1020D000A21BB30BE40BF50B661F771F881F991F1C
:1020E0001A9469F760957095809590959B01AC0165
:1020F000BD01CF010895EE0FFF1F0590F491E02D73
:1021000009940F931F93CF93DF938230910510F4BE
:1021100082E090E0E0918C03F0918D0330E020E0CC
:10212000B0E0A0E0309799F42115310509F44AC0D8
:10213000281B390B24303105D8F58A819B81611524
:10214000710589F1FB0193838283FE0111C04081F7
:1021500051810281138148175907E0F04817590748
:1021600099F4109761F012960C93129713961C93A2
:102170003296CF01DF91CF911F910F910895009377
:102180008C0310938D03F4CF2115310551F04217C4
:10219000530738F0A901DB019A01BD01DF01F80105
:1021A000C1CFEF01F9CF90938D0380938C03CDCFF6
:1021B000FE01E20FF31F819391932250310939837D
:1021C0002883D7CF20918A0330918B03232B41F4AE
:1021D000209106013091070130938B0320938A03ED
:1021E00020910401309105012115310541F42DB7ED
:1021F0003EB74091080150910901241B350BE09135
:102200008A03F0918B03E217F307A0F42E1B3F0B18
:102210002817390778F0AC014E5F5F4F2417350758
:1022200048F04E0F5F1F50938B0340938A038193B6
:1022300091939FCFF0E0E0E09CCFCF93DF930097A6
:10224000E9F0FC01329713821282A0918C03B091C5
:102250008D03ED0130E020E01097A1F42081318161
:10226000820F931F20918A0330918B03281739071F
:1022700009F061C0F0938B03E0938A03DF91CF9163
:102280000895EA01CE17DF07E8F54A815B819E01D8
:1022900041155105B1F7E901FB83EA834991599151
:1022A000C40FD51FEC17FD0761F480819181029660
:1022B000840F951FE90199838883828193819B8391
:1022C0008A83F0E0E0E012968D919C91139700973D
:1022D000B9F52D913C911197CD010296820F931F74
:1022E00020918A0330918B032817390739F63097EC
:1022F00051F510928D0310928C03B0938B03A09331
:102300008A03BCCFD383C28340815181840F951F40
:10231000C817D90761F44E5F5F4F88819981480FD4
:10232000591F518340838A819B8193838283211526
:10233000310509F0B0CFF0938D03E0938C039ECF6D
:10234000FD01DC01C0CF13821282D7CFB0E0A0E044
:10235000ECEAF1E10C9409108C01009751F4CB01E7
:102360000E9481108C01C801CDB7DEB7E0E10C946A
:102370002510FC01E60FF71F9C0122503109E217DE
:10238000F30708F49DC0D901CD91DC911197C617D0
:10239000D70798F0C530D10530F3CE0104978617E2
:1023A000970708F3C61BD70B2297C193D1936D9360
:1023B0007C93CF010E941D11D6CF5B01AC1ABD0AE0
:1023C0004C018C0E9D1EA0918C03B0918D03512C5D
:1023D000412CF12CE12C109731F580918A039091DA
:1023E0008B038815990509F05CC04616570608F05E
:1023F00058C08091040190910501009741F48DB778
:102400009EB74091080150910901841B950BE81774
:10241000F90708F055C0F0938B03E0938A03F901A4
:1024200071836083A0CF8D919C91119712966C90CF
:10243000129713967C901397A815B90559F56C015E
:1024400042E0C40ED11CCA14DB0420F1AC014A19CD
:102450005B09DA011296159780F0628273825183CC
:102460004083D9016D937C93E114F10471F0D7019D
:102470001396FC93EE93129776CF22968C0F9D1FA6
:10248000F90191838083F301EFCFF0938D03E09303
:102490008C0369CF4816590608F42C017D01D3013D
:1024A0009ACFCB010E9481107C01009749F0AE01C8
:1024B000B8010E946312C8010E941D11870153CF09
:1024C00010E000E050CFFB01DC0102C001900D9252
:1024D00041505040D8F70895FB01DC0101900D9266
:0A24E0000020E1F70895F894FFCF03
:1024EA007501750100008E03800000004000140091
:1024FA0054000000000016027601A3016302D40111
:10250A00B201C601000000000005D3044405A90475
:10251A00CC04B904AA0400000000B90576014405F8
:10252A0043050D0A0068656C6C6F2C20776F726C1E
:10253A006421002F003A00436F2E3A2000436F2E89
:10254A002D5369783A2000444154453A20005449B1
:10255A004D453A2000446966666572656E6365207A
:10256A00696E207365636F6E647320626574776544
:10257A00656E206E6F6F6E20616E64206D69646E89
:10258A00696768743A0900446966666572656E63CC
:10259A006520696E207365636F6E6473206265746B
:1025AA007765656E206E6F7720616E64206E6F6F3F
:1025BA006E3A0900446966666572656E63652069EC
:1025CA006E207365636F6E647320626574776565E8
:1025DA006E206E6F7720616E64206D69646E696724
:0625EA0068743A090000CC
:00000001FF
